:0C00000023C0FECFFDCFFCCFFBCFFACF1A
:10000C00F9CFF8CFF7CFF6CFF5CFF4CFF3CFF2CFC0
:10001C00F1CFF0CFEFCFEECFEDCF48656C6C6F200A
:10002C00576F726C6421004D656761204D696E6974
:10003C00000080C0020060013E000000F894EE2732
:10004C00ECBBF1E0FBBFEBBFE5BFF8E1F1BDE1BDFF
:10005C008DE0A2E0BB27ED938A95E9F780E094E070
:10006C00A0E6ED930197E9F7E0E4F0E08591959136
:10007C00009761F0A591B59105901590BF01F00125
:10008C0005900D920197E1F7FB01F0CFEFE5EDBF85
:10009C00E4E0EEBFC0E6D1E000C0E0E0E7BBE8BBC7
:1000AC00E4BBE5BBE1BBE2BBE3BFE2BFEFBDEEBD32
:1000BC00EDBDECBDE7BDE6BDEBBDEABDE9BDE8BD00
:1000CC00E2BDE5BDE4BDE3BDE9BFE5BFEAB9E0E8EB
:1000DC00E8B9E0E0E0BFE6B9EDB9E6BFA0E181D058
:1000EC004AD0E0E0EA93A0E039D0A6E2B0E066D0D6
:1000FC00E0E0EA93A1E032D0A3E3B0E05FD0A4E665
:10010C0099D0EECFFFCFAA93E881E07111F0C59A98
:10011C0001C0C598E881E07211F0959A01C09598DC
:10012C00E881E07411F0969A01C09698E881E07825
:10013C0011F0979A01C097987FD0AC9A7DD0AC986B
:10014C007BD076C0AA93A881DEDFE881E295E883B4
:10015C00A881D9DF81E18A95F1F76AC0AA93E88179
:10016C00F0E0E05AFE4FE081A981AE0FEBDF598041
:10017C00488022960895A2E0E5DFA3E05BD0ACE0D6
:10018C00E1DFA1E0DFDFA3E055D0E0E04E2E5E2EF4
:10019C000895AA93A881AA3011F0571448F0E0E012
:1001AC00EA934394A42DDADFA881AA3009F440C065
:1001BC005394AD9AA881C6DFAD983AC0BA93AA936E
:1001CC001A93E981FA813196E983FA833197E491A4
:1001DC001E2FE03019F0A12FDCDFF3CF188123960E
:1001EC000895AA93BD9A8D9A8E9A8F9AA49AA59ADD
:1001FC00A69AAC98AD98AE987880E881E058E093D8
:10020C006201E881E054E0936301A4E113D018D0BB
:10021C0017D016D0A0E277DF81E28A95F1F7A8E239
:10022C0091DFA4E08FDFA5E88DDFA6E08BDFA3DFF5
:10023C0021960895B0E00AC082E08A95F1F70895FE
:10024C00A0E361DF81E28A95F1F70895109639F009
:10025C008AEF90E00197F1F7A8951197C9F70895E7
:00000001FF
