:0E00000012C0FECFFDCFFCCFFBCFFACFF9CF61
:10000E00F8CFF7CFF6CFF5CFF4CFF3CFF2CFF1CFC6
:10001E00F0CFEFCFEECFEDCFF894EE27ECBBF1E0C3
:10002E00FBBFEBBFE5BFF8E1F1BDE1BD8DE0A2E0A6
:10003E00BB27ED938A95E9F780E094E0A0E6ED9377
:10004E000197E9F7EFE5EDBFE4E0EEBFC0E6D1E0E2
:10005E0000C0E0E0E7BBE8BBEEE0E4BBE0E0E5BB00
:10006E00E1BBE2BBE3BFE2BFEFBDEEBDEDBDECBD5C
:10007E00E7BDE6BDEBBDEABDE9BDE8BDE2BDE5BD50
:10008E00E4BDE3BDE9BFE5BFEAB9E0E8E8B9E0E009
:10009E00E0BFE6B9EDB9E6BFA998AA9A0BD0A99A26
:1000AE00AA9AAB98A8EEB3E009D0A99AAA9802D062
:1000BE00F3CFFFCFAB9AA8EEB3E000C0109639F0A5
:1000CE008AEF90E00197F1F7A8951197C9F7089577
:00000001FF
