:0400000029C0FECF46
:10000400FDCFFCCFFBCFFACFF9CFF8CFF7CFF6CFA8
:10001400F5CFF4CFF3CFF2CFF1CFF0CFEFCFEECFD8
:10002400EDCF53656E736F722052656164696E67BC
:100034002E2E000001002D4E414E00494E46000078
:1000440080C001006401380002006801440000001F
:10005400F894EE27ECBBF1E0FBBFEBBFE5BFF8E1A2
:10006400F1BDE1BD8DE0A2E0BB27ED938A95E9F7F0
:1000740080E094E0A0E6ED930197E9F7E6E4F0E090
:1000840085919591009761F0A591B5910590159092
:10009400BF01F00105900D920197E1F7FB01F0CF4C
:1000A400EFE5EDBFE4E0EEBFC0E6D1E00EC0AA93F9
:1000B400E881E064E7B983E08A95F1F7369A349BE6
:1000C400FECF349AE4B1F5B113C1E0E0E7BBE8BB7D
:1000D400E4BBE5BBE1BBE2BBE3BFE2BFEFBDEEBD0A
:1000E400EDBDECBDE7BDE6BDEBBDEABDE9BDE8BDD8
:1000F400E2BDE5BDE4BDE3BDE9BFE5BFEAB9E0E8C3
:10010400E8B9E0E4E7B9E2E8E6B9E0E0E0BFEDB978
:10011400E6BFA0E1C6D0A0E0CADF2F015A924A92FE
:10012400A0E6B1E013D078D0E0E0EA93A0E067D095
:10013400A6E2B0E0A3D0E6E0EA93A1E060D0A0E6B6
:10014400B1E08DD0A4E6D6D0E6CFFFCFBA93AA9380
:10015400A991B991E991F99130962AF4E095F09535
:1001640031966DE26D93E89480E197E20DD088EECC
:1001740093E00AD084E6992707D08AE005D06E2F51
:1001840010D066276C9308956627E817F90720F0C6
:100194006395E81BF90BC9F7662311F416F008956B
:1001A4006894605D6D930895AA93E881E07111F0FD
:1001B400C59A01C0C598E881E07211F0959A01C012
:1001C4009598E881E07411F0969A01C09698E881B8
:1001D400E07811F0979A01C097988ED0AC9A8CD0A1
:1001E400AC988AD085C0AA93A881DEDFE881E29525
:1001F400E883A881D9DF81E18A95F1F779C0AA93D0
:10020400E881F0E0E859FE4FE081A981AE0FEBDF11
:100214007980688022960895A2E0E5DFA3E06AD0A1
:10022400ACE0E1DFA1E0DFDFA3E064D0E0E06E2E2C
:100234007E2E0895AA93A881AA3011F0791448F06B
:10024400E0E0EA936394A62DDADFA881AA3009F4EA
:100254004FC07394AD9AA881C6DFAD9849C0BA93D4
:10026400AA931A93A981BA81ED91A983BA831E2F07
:10027400E03019F0A12FDEDFF5CF10C0BA93AA93B6
:100284001A93E981FA813196E983FA833197E491EB
:100294001E2FE03019F0A12FCDDFF3CF1881239664
:1002A4000895AA93BD9A8D9A8E9A8F9AA49AA59A24
:1002B400A69AAC98AD98AE989880E881E058E093FF
:1002C4006A01E881E054E0936B01A4E113D018D0F3
:1002D40017D016D0A0E268DF81E28A95F1F7A8E290
:1002E40082DFA4E080DFA5E87EDFA6E07CDF94DF88
:1002F40021960895B0E00AC082E08A95F1F7089546
:10030400A0E352DF81E28A95F1F70895109639F05F
:100314008AEF90E00197F1F7A8951197C9F708952E
:00000001FF
