:0E00000012C0FECFFDCFFCCFFBCFFACFF9CF61
:10000E00F8CFF7CFF6CFF5CFF4CFF3CFF2CFF1CFC6
:10001E00F0CFEFCFEECFEDCFF894EE27ECBBF1E0C3
:10002E00FBBFEBBFE5BFF8E1F1BDE1BD8DE0A2E0A6
:10003E00BB27ED938A95E9F780E094E0A0E6ED9377
:10004E000197E9F7EFE5EDBFE4E0EEBFC0E6D1E0E2
:10005E0000C0E8E0E7BBE0E0E8BBE4BBE5BBE1BB2A
:10006E00E2BBE3BFE2BFEFBDEEBDEDBDECBDE7BD54
:10007E00E6BDEBBDEABDE9BDE8BDE2BDEBE1E5BD28
:10008E00E0E0E4BDE3BDE9BFE5BFEAB9E0E8E8B909
:10009E00E0E0E0BFE6B9EDB9E6BFE4E313D0EEE28F
:1000AE0011D0ECE20FD0E6E20DD0E2E20BD0EEE1A1
:1000BE0009D0ECE107D0E0E0E3BDA8EEB3E006D056
:1000CE00ECCFFFCFE3BDA4EFB1E000C0109639F046
:1000DE008AEF90E00197F1F7A8951197C9F7089567
:00000001FF
