:0E00000020C0FECFFDCFFCCFFBCFFACFF9CF53
:10000E00F8CFF7CFF6CFF5CFF4CFF3CFF2CFF1CFC6
:10001E00F0CFEFCFEECFEDCF1027E80364000A004C
:10002E00010000100001100001004D6567614D696F
:10003E006E690000F894EE27ECBBF1E0FBBFEBBF5E
:10004E00E5BFF8E1F1BDE1BD8DE0A2E0BB27ED9388
:10005E008A95E9F780E094E0A0E6ED930197E9F741
:10006E00EFE5EDBFE4E0EEBFC0E6D1E000C0E0E0BA
:10007E00E7BBE8BBE4BBE5BBE1BBE2BBE3BFE2BF72
:10008E00EFBDEEBDEDBDECBDE7BDE6BDEBBDEABD22
:10009E00E9BDE8BDE2BDE5BDE4BDE3BDE9BFE5BF39
:1000AE00EBB9E8E0EAB9E6E8E0BDE0E0E0BDE9E1A1
:1000BE00E9B9E0E8E8B9E0E0E0BFE6B9EDB9E6BFDE
:1000CE00A8E3B0E00ED0ADE005D0A8EEB3E01ED0B0
:1000DE00F7CFFFCFAA935D9BFECFE881ECB92196B7
:1000EE000895BA93AA931A93E981FA813196E98316
:1000FE00FA833197E4911E2FE03019F0A12FEADF39
:10010E00F3CFAAE0E7DF188123960895109639F011
:10011E008AEF90E00197F1F7A8951197C9F7089526
:00000001FF
