:0400000020C0FECF4F
:10000400FDCFFCCFFBCFFACFF9CFF8CFF7CFF6CFA8
:10001400F5CFF4CFF3CFF2CFF1CFF0CFEFCFEECFD8
:10002400EDCF1027E80364000A000100001000016E
:100034001000010080C00200600138000000F89444
:10004400EE27ECBBF1E0FBBFEBBFE5BFF8E1F1BD90
:10005400E1BD8DE0A2E0BB27ED938A95E9F780E04E
:1000640094E0A0E6ED930197E9F7EAE3F0E08591E7
:100074009591009761F0A591B59105901590BF01F8
:10008400F00105900D920197E1F7FB01F0CFEFE548
:10009400EDBFE4E0EEBFC0E6D1E000C0E0E0E7BBC6
:1000A400E8BBE4BBE5BBE1BBE2BBE3BFE2BFEFBD42
:1000B400EEBDEDBDECBDE7BDE6BDEBBDEABDE9BD02
:1000C400E8BDE2BDE5BDE4BDE3BDE9BFE5BFEBB915
:1000D400E0E1EAB9E6E8E0BDE0E0E0BDE9E1E9B984
:1000E400E0E8E8B9E0E0E0BFE6B9EDB9E6BFA0E1D9
:1000F40061D08AD05E2E40D0E0E0EA93A0E02FD019
:10010400A52D44D0F6CFFFCFAA93E881E07111F07A
:10011400C59A01C0C598E881E07211F0959A01C0B2
:100124009598E881E07411F0969A01C09698E88158
:10013400E07811F0979A01C097986AD0AC9A68D089
:10014400AC9866D05FC0AA93A881DEDFE881E2950F
:10015400E883A881D9DF81E18A95F1F753C0AA9396
:10016400E881F0E0E05AFE4FE081A981AE0FEBDFB9
:100174004980788022960895A2E04ED0ACE0E3DF77
:10018400A1E04AD0E0E07E2E4E2E0895AA93A881E5
:10019400AA3011F0461440F0E0E0EA937394A72DDE
:1001A400DEDFA881AA3071F14394AD9AA881CBDF38
:1001B400AD9828C0AA93BD9A8D9A8E9A8F9AA49AC4
:1001C400A59AA69AAC98AD98AE986880E881E05854
:1001D400E0936201E881E054E0936301A4E1B0E0BC
:1001E40025D01ED01DD01CD0A0E28EDF81E28A95DE
:1001F400F1F7A8E2A8DFA4E0A6DFA5E8A4DFA6E063
:10020400A2DFBADF219608955F9BFECFECB108957B
:1002140082E08A95F1F7089596DFA3E0B0E006C086
:10022400A0E372DF81E28A95F1F70895109639F020
:100234008AEF90E00197F1F7A8951197C9F708950F
:00000001FF
