:1000000032C044C043C042C041C040C03FC03EC0F7
:100010003DC03CC03BC03AC039C038C037C036C014
:1000200035C034C033C0001F000000001F00001F97
:10003000101010101F00001F181818181F00001FA4
:100040001C1C1C1C1F00001F1E1E1E1E1F00001F4C
:100050001F1F1F1F1F0003070F1F0F070300181C80
:100060001E1F1E1C180011241FBECFE5D4E0DEBFEA
:10007000CDBF10E0A0E6B0E0E8E2FAE002C00590F3
:100080000D92A836B107D9F702D0CCC4B9CFAF9240
:10009000BF92CF92DF92EF92FF920F931F93DF9365
:1000A000CF9300D000D0CDB7DEB780E106D18E016E
:1000B0000F5F1F4F20E6A22E20E0B22E92EDC92E38
:1000C00094E0D92E88ECE82EF12C00D000D000D09E
:1000D000EDB7FEB73196ADB7BEB712961C930E932F
:1000E0001197B382A282D582C482D6D18DB79EB732
:1000F00006960FB6F8949EBF0FBE8DBF71D081E0FB
:1001000061E096D081E428D085E061E091D0C8011B
:1001100081D080E060E08CD083E690E067D080E121
:1001200097E2F7013197F1F70197D9F7CECF87FF23
:1001300002C0979A01C0979886FF02C0969A01C0A4
:10014000969885FF02C0959A01C0959884FF02C0D9
:10015000C59A0895C5980895FF920F931F93F82E9E
:10016000807FE5DFAD9AAC9A00ED17E0C8010197FA
:10017000F1F7AC98AD98C8010197F1F78F2D8295F2
:10018000807FD5DFAD9AAC9AC8010197F1F7AC98A2
:10019000AD98C8010197F1F71F910F91FF90089555
:1001A000FF920F931F93F82E807FC1DFAC9A00ED72
:1001B00017E0C8010197F1F7AC98C8010197F1F772
:1001C0008F2D8295807FB3DFAC9AC8010197F1F73C
:1001D000AC98C8010197F1F71F910F91FF90089516
:1001E00081E0DEDF089582E0DBDF08951F93CF9387
:1001F000DF93EC01009751F010E002C0ADDF1F5F0C
:10020000FE01E10FF11D80818823C1F7DF91CF91BD
:100210001F910895CF93DF93EC01009731F088810F
:100220009BDF898199DF8A8197DFDF91CF910895E4
:10023000623031F0633031F0613029F4805C03C00A
:100240008C5E01C08C5A8068ABDF08951F93CF93FA
:10025000DF93EC01862F642FEBDF10E002C07CDF20
:100260001F5FFE01E10FF11D84918823C1F7DF912B
:10027000CF911F910895EF92FF920F931F93CF9309
:10028000DF937C01162F110F110F110F1064C0E0C6
:10029000D0E0F701EC0FFD1F0491812F8C0F80DF60
:1002A000802F5ADF2196C830D10599F7DF91CF9181
:1002B0001F910F91FF90EF9008950F931F93CF938D
:1002C000DF9380E395E70197F1F780E030DFAD98A9
:1002D000AE98AC98BD9A8D9A8E9A8F9AA59AA69A46
:1002E000A49A80E324DFAC9A00ED17E0C8010197DF
:1002F000F1F7AC98C8010197F1F780E318DFAC9AE9
:10030000C8010197F1F7AC98C8010197F1F780E2B5
:100310000EDFAC9AC8010197F1F7AC98C8010197BC
:10032000F1F788E23DDF8CE03BDFC6E2D0E060E041
:10033000162F1F5FCE019FDF2896612F1830C1F75F
:10034000DF91CF911F910F9108950F931F93082F65
:1003500010E003C08EE124DF1F5F1017D8F31F9158
:100360000F9108950F931F93082F10E003C088E1A9
:1003700017DF1F5F1017D8F31F910F9108958EE0BC
:100380000FDF08958FE00CDF08958CE009DF0895FA
:1003900088E006DF08958CE003DF08950F931F9334
:1003A000082F10E003C080E1FBDE1F5F1017D8F3B9
:1003B0001F910F9108950F931F93082F10E003C012
:1003C00084E1EEDE1F5F1017D8F31F910F9108959F
:1003D000DF92EF92FF920F931F93CF93DF93D42E70
:1003E00096E0899FC0011124242F30E0AC01429F88
:1003F000C001439F900D529F900D112470E039D0A1
:10040000EB01CB0166E070E020D0E82EFF2400E095
:1004100010E011C0C8010596C817D90710F085E093
:1004200006C0C017D10710F08E2D01C080E094DE09
:10043000F3940A5F1F4FFD1468F3DF91CF911F9172
:100440000F91FF90EF90DF900895AA1BBB1B51E125
:1004500007C0AA1FBB1FA617B70710F0A61BB70B34
:10046000881F991F5A95A9F780959095BC01CD01D9
:10047000089597FB092E07260AD077FD04D0E5DF03
:1004800006D000201AF4709561957F4F0895F6F715
:10049000909581959F4F0895AEE0B0E0E1E5F2E0E0
:1004A00098C20D891E8986E08C831A8309838FEF99
:1004B0009FE79E838D839E01275E3F4FCE0101966D
:1004C0006F89788DA90109D02F813885020F131FFC
:1004D000F80110822E96E4E098C2ABE0B0E0E2E7CB
:1004E000F2E069C23C012B015A01FC01178216821D
:1004F000838181FD03C06FEF7FEFB9C19AE0892E40
:100500001E010894211C311CF3012381F20123FDFB
:10051000859123FF81912F01882309F4A5C185329C
:1005200039F423FD859123FF81912F01853221F438
:1005300090E0B301B6D1E8CF982FFF24EE249924A0
:10054000FFE1FF15D0F09B3269F09C3228F4903225
:1005500059F0933291F40EC09D3249F0903369F412
:1005600041E024C052E0F52A84E0F82A28C098E04F
:10057000F92A25C0E0E1FE2A22C0F7FC29C0892F14
:1005800080538A3070F4F6FE05C0989C902C11249C
:10059000980E15C0E89CE02C1124E80EF0E2FF2A2A
:1005A0000EC09E3229F4F6FC5FC140E4F42A07C075
:1005B0009C3619F450E8F52A02C0983649F4F20145
:1005C00023FD959123FF91912F01992309F0B8CF35
:1005D000892F8554833018F08052833038F444E0FA
:1005E00050E0A40EB51E5FE359830FC0933631F07F
:1005F000933779F0933509F052C01FC0F50180811F
:10060000898342E050E0A40EB51E610101E010E0D4
:1006100011C0F501C080D180F6FC03C06FEF7FEF01
:1006200002C0692D70E042E050E0A40EB51EC60184
:100630002DD18C015FE7F52213C0F501C080D18078
:10064000F6FC03C06FEF7FEF02C0692D70E042E05F
:1006500050E0A40EB51EC6010ED18C0150E8F52A5B
:10066000F3FE06C018C080E290E0B3011AD1EA940C
:100670008E2D90E008171907B0F30DC0F601F7FCB6
:100680008591F7FE81916F0190E0B3010AD1E110ED
:10069000EA94015010400115110581F7E2C094362B
:1006A00011F0993661F5F7FE08C0F501208131811E
:1006B0004281538184E090E00AC0F50180819181FC
:1006C0009C01442737FD4095542F82E090E0A80E0E
:1006D000B91E9FE6F92257FF09C050954095309505
:1006E00021953F4F4F4F5F4FE0E8FE2ACA01B90105
:1006F000A1012AE030E001D1D82ED2183FC09537B1
:1007000029F41F2D1F7E2AE030E01DC01F2D197F08
:100710009F3661F0903720F4983509F0A5C00FC0DE
:10072000903739F0983709F09FC004C028E030E0D6
:100730000AC0106114FD146020E130E004C014FD13
:10074000166020E132E017FF08C0F5016081718179
:100750008281938144E050E008C0F501808191815D
:10076000BC0180E090E042E050E0A40EB51EA10183
:10077000C4D0D82ED2188FE7F82EF122F6FE0BC087
:100780005EEFF522D91438F4F4FE07C0F2FC05C080
:100790008FEEF82202C01D2D01C0192DF4FE0DC0F0
:1007A000FE01ED0DF11D8081803319F499EEF922DF
:1007B00008C01F5FF2FE05C003C08F2D867809F0C8
:1007C0001F5F0F2DF3FC13C0F0FE0EC01E1510F0BE
:1007D0009D2C0AC09D2C9E0C911A1E2D05C080E2F6
:1007E00090E0B3015ED01F5F1E15C8F304C01E1554
:1007F00010F4E11A01C0EE2404FF0EC080E390E083
:10080000B3014FD002FF1BC001FD03C088E790E099
:100810000EC088E590E00BC0802F867881F001FF44
:1008200002C08BE201C080E2F7FC8DE290E0B301F0
:1008300038D005C080E390E0B30133D09A94D91446
:10084000C8F3DA94F101ED0DF11D808190E0B30160
:1008500028D0DD20B1F705C080E290E0B30121D0BF
:10086000EA94EE20C9F750CEF30166817781CB017F
:100870002B96E2E1BCC0FC01059061507040011074
:10088000D8F7809590958E0F9F1F0895FC016150B9
:10089000704001900110D8F7809590958E0F9F1FA2
:1008A00008950F931F93CF93DF938C01EB018B81FE
:1008B00081FF1BC082FF0DC02E813F818C819D81F5
:1008C0002817390764F4E881F9810193F983E883F3
:1008D00006C0E885F985802F0995892B31F48E8132
:1008E0009F8101969F838E8302C00FEF1FEFC80187
:1008F000DF91CF911F910F910895FA01AA27283017
:1009000051F1203181F1E8946F936E7F6E5F7F4FDC
:100910008F4F9F4FAF4FB1E03ED0B4E03CD0670F58
:10092000781F891F9A1FA11D680F791F8A1F911DAB
:10093000A11D6A0F711D811D911DA11D20D009F4FB
:1009400068943F912AE0269F11243019305D31933D
:10095000DEF6CF010895462F4770405D4193B3E026
:100960000FD0C9F7F6CF462F4F70405D4A3318F0CD
:10097000495D31FD4052419302D0A9F7EACFB4E07E
:10098000A6959795879577956795BA95C9F7009736
:100990006105710508959B01AC010A2E06945795D7
:1009A000479537952795BA95C9F7620F731F841F2E
:1009B000951FA01D08952F923F924F925F926F92C4
:1009C0007F928F929F92AF92BF92CF92DF92EF92DF
:1009D000FF920F931F93CF93DF93CDB7DEB7CA1B60
:1009E000DB0B0FB6F894DEBF0FBECDBF09942A888B
:1009F000398848885F846E847D848C849B84AA8433
:100A0000B984C884DF80EE80FD800C811B81AA81BF
:100A1000B981CE0FD11D0FB6F894DEBF0FBECDBF8A
:080A2000ED010895F894FFCFE9
:080A2800256400415652000054
:00000001FF
